{
  "contractName": "GamePRS",
  "abi": [
    {
      "inputs": [
        {
          "internalType": "address",
          "name": "_tokenAddr",
          "type": "address"
        }
      ],
      "stateMutability": "nonpayable",
      "type": "constructor"
    },
    {
      "anonymous": false,
      "inputs": [
        {
          "indexed": false,
          "internalType": "uint256",
          "name": "id",
          "type": "uint256"
        }
      ],
      "name": "GameCreated",
      "type": "event"
    },
    {
      "anonymous": false,
      "inputs": [
        {
          "indexed": false,
          "internalType": "bool",
          "name": "done",
          "type": "bool"
        },
        {
          "indexed": false,
          "internalType": "uint256",
          "name": "idRound",
          "type": "uint256"
        },
        {
          "indexed": false,
          "internalType": "uint256",
          "name": "gameId",
          "type": "uint256"
        }
      ],
      "name": "MovesDone",
      "type": "event"
    },
    {
      "anonymous": false,
      "inputs": [
        {
          "indexed": true,
          "internalType": "address",
          "name": "previousOwner",
          "type": "address"
        },
        {
          "indexed": true,
          "internalType": "address",
          "name": "newOwner",
          "type": "address"
        }
      ],
      "name": "OwnershipTransferred",
      "type": "event"
    },
    {
      "anonymous": false,
      "inputs": [
        {
          "indexed": false,
          "internalType": "uint256",
          "name": "amount",
          "type": "uint256"
        },
        {
          "indexed": false,
          "internalType": "address",
          "name": "winner",
          "type": "address"
        }
      ],
      "name": "PrizeSent",
      "type": "event"
    },
    {
      "anonymous": false,
      "inputs": [
        {
          "indexed": false,
          "internalType": "string",
          "name": "",
          "type": "string"
        }
      ],
      "name": "PutIntoWaitingRoom",
      "type": "event"
    },
    {
      "anonymous": false,
      "inputs": [
        {
          "indexed": false,
          "internalType": "string",
          "name": "info",
          "type": "string"
        },
        {
          "indexed": false,
          "internalType": "uint256",
          "name": "result",
          "type": "uint256"
        }
      ],
      "name": "RoundEnded",
      "type": "event"
    },
    {
      "anonymous": false,
      "inputs": [
        {
          "indexed": false,
          "internalType": "bool",
          "name": "received",
          "type": "bool"
        }
      ],
      "name": "SaltReceived",
      "type": "event"
    },
    {
      "inputs": [],
      "name": "PrsToken",
      "outputs": [
        {
          "internalType": "contract IERC20",
          "name": "",
          "type": "address"
        }
      ],
      "stateMutability": "view",
      "type": "function"
    },
    {
      "inputs": [],
      "name": "entryPrice",
      "outputs": [
        {
          "internalType": "uint256",
          "name": "",
          "type": "uint256"
        }
      ],
      "stateMutability": "view",
      "type": "function"
    },
    {
      "inputs": [],
      "name": "feeRatio",
      "outputs": [
        {
          "internalType": "uint256",
          "name": "",
          "type": "uint256"
        }
      ],
      "stateMutability": "view",
      "type": "function"
    },
    {
      "inputs": [],
      "name": "owner",
      "outputs": [
        {
          "internalType": "address",
          "name": "",
          "type": "address"
        }
      ],
      "stateMutability": "view",
      "type": "function"
    },
    {
      "inputs": [],
      "name": "prizeRatio",
      "outputs": [
        {
          "internalType": "uint256",
          "name": "",
          "type": "uint256"
        }
      ],
      "stateMutability": "view",
      "type": "function"
    },
    {
      "inputs": [],
      "name": "renounceOwnership",
      "outputs": [],
      "stateMutability": "nonpayable",
      "type": "function"
    },
    {
      "inputs": [
        {
          "internalType": "address",
          "name": "newOwner",
          "type": "address"
        }
      ],
      "name": "transferOwnership",
      "outputs": [],
      "stateMutability": "nonpayable",
      "type": "function"
    },
    {
      "inputs": [
        {
          "internalType": "uint256",
          "name": "_Usalt",
          "type": "uint256"
        },
        {
          "internalType": "enum GamePRS.Move",
          "name": "_move",
          "type": "uint8"
        },
        {
          "internalType": "uint256",
          "name": "gameId",
          "type": "uint256"
        }
      ],
      "name": "receiveSalt",
      "outputs": [],
      "stateMutability": "nonpayable",
      "type": "function"
    },
    {
      "inputs": [
        {
          "internalType": "uint256",
          "name": "_id",
          "type": "uint256"
        }
      ],
      "name": "endSpiel",
      "outputs": [],
      "stateMutability": "nonpayable",
      "type": "function"
    },
    {
      "inputs": [],
      "name": "joinGame",
      "outputs": [],
      "stateMutability": "nonpayable",
      "type": "function"
    },
    {
      "inputs": [
        {
          "internalType": "uint256",
          "name": "_id",
          "type": "uint256"
        },
        {
          "internalType": "bytes32",
          "name": "_hashedMove",
          "type": "bytes32"
        }
      ],
      "name": "makeMove",
      "outputs": [],
      "stateMutability": "nonpayable",
      "type": "function"
    },
    {
      "inputs": [],
      "name": "deposit",
      "outputs": [
        {
          "internalType": "bool",
          "name": "",
          "type": "bool"
        }
      ],
      "stateMutability": "payable",
      "type": "function"
    }
  ],
  "bytecode": "0x60806040526000600560006101000a81548173ffffffffffffffffffffffffffffffffffffffff021916908373ffffffffffffffffffffffffffffffffffffffff1602179055503480156200005357600080fd5b506040516200327a3803806200327a83398181016040528101906200007991906200041a565b620000ab62000096620001e2640100000000026401000000009004565b620001ea640100000000026401000000009004565b60018060146101000a81548160ff021916908315150217905550620000de620002ae640100000000026401000000009004565b600360006101000a81548173ffffffffffffffffffffffffffffffffffffffff021916908373ffffffffffffffffffffffffffffffffffffffff16021790555062000137620002d7640100000000026401000000009004565b80600260006101000a81548173ffffffffffffffffffffffffffffffffffffffff021916908373ffffffffffffffffffffffffffffffffffffffff160217905550600260009054906101000a900473ffffffffffffffffffffffffffffffffffffffff16600160006101000a81548173ffffffffffffffffffffffffffffffffffffffff021916908373ffffffffffffffffffffffffffffffffffffffff16021790555050620004cf565b600033905090565b60008060009054906101000a900473ffffffffffffffffffffffffffffffffffffffff169050816000806101000a81548173ffffffffffffffffffffffffffffffffffffffff021916908373ffffffffffffffffffffffffffffffffffffffff1602179055508173ffffffffffffffffffffffffffffffffffffffff168173ffffffffffffffffffffffffffffffffffffffff167f8be0079c531659141344cd1fd0a4f28419497f9722a3daafe3b4186f6b6457e060405160405180910390a35050565b60008060009054906101000a900473ffffffffffffffffffffffffffffffffffffffff16905090565b620002f06200030d640100000000026401000000009004565b6200030b6000620001ea640100000000026401000000009004565b565b62000326620001e2640100000000026401000000009004565b73ffffffffffffffffffffffffffffffffffffffff1662000355620002ae640100000000026401000000009004565b73ffffffffffffffffffffffffffffffffffffffff1614620003ae576040517f08c379a0000000000000000000000000000000000000000000000000000000008152600401620003a590620004ad565b60405180910390fd5b565b600080fd5b600073ffffffffffffffffffffffffffffffffffffffff82169050919050565b6000620003e282620003b5565b9050919050565b620003f481620003d5565b81146200040057600080fd5b50565b6000815190506200041481620003e9565b92915050565b600060208284031215620004335762000432620003b0565b5b6000620004438482850162000403565b91505092915050565b600082825260208201905092915050565b7f4f776e61626c653a2063616c6c6572206973206e6f7420746865206f776e6572600082015250565b6000620004956020836200044c565b9150620004a2826200045d565b602082019050919050565b60006020820190508181036000830152620004c88162000486565b9050919050565b612d9b80620004df6000396000f3fe6080604052600436106100c4576000357c010000000000000000000000000000000000000000000000000000000090048063cc2bf9ae11610081578063cc2bf9ae146101b3578063d0e30db0146101dc578063d4f77b1c146101fa578063eb706ffe14610211578063f2fde38b1461023c578063f745adfc14610265576100c4565b8063018db78e146100c957806341744dd4146100f457806353381cec1461011f578063715018a6146101485780638da5cb5b1461015f578063c5edac0b1461018a575b600080fd5b3480156100d557600080fd5b506100de610290565b6040516100eb9190611ec8565b60405180910390f35b34801561010057600080fd5b50610109610295565b6040516101169190611ec8565b60405180910390f35b34801561012b57600080fd5b5061014660048036038101906101419190611f4a565b61029a565b005b34801561015457600080fd5b5061015d6106d9565b005b34801561016b57600080fd5b506101746106ed565b6040516101819190611fcb565b60405180910390f35b34801561019657600080fd5b506101b160048036038101906101ac919061200b565b610716565b005b3480156101bf57600080fd5b506101da60048036038101906101d5919061205e565b610b2d565b005b6101e4610f16565b6040516101f191906120a6565b60405180910390f35b34801561020657600080fd5b5061020f6110de565b005b34801561021d57600080fd5b50610226611372565b6040516102339190612120565b60405180910390f35b34801561024857600080fd5b50610263600480360381019061025e9190612167565b611398565b005b34801561027157600080fd5b5061027a61141b565b6040516102879190611ec8565b60405180910390f35b605581565b600f81565b816009600082815260200190815260200160002060000160009054906101000a900460ff166102fe576040517f08c379a00000000000000000000000000000000000000000000000000000000081526004016102f5906121f1565b60405180910390fd5b6000600181111561031257610311612211565b5b6009600083815260200190815260200160002060020160009054906101000a900460ff16600181111561034857610347612211565b5b14610388576040517f08c379a000000000000000000000000000000000000000000000000000000000815260040161037f9061228c565b60405180910390fd5b33838173ffffffffffffffffffffffffffffffffffffffff166009600083815260200190815260200160002060020160019054906101000a900473ffffffffffffffffffffffffffffffffffffffff1673ffffffffffffffffffffffffffffffffffffffff16148061045b57508173ffffffffffffffffffffffffffffffffffffffff166009600083815260200190815260200160002060030160009054906101000a900473ffffffffffffffffffffffffffffffffffffffff1673ffffffffffffffffffffffffffffffffffffffff16145b61049a576040517f08c379a00000000000000000000000000000000000000000000000000000000081526004016104919061231e565b60405180910390fd5b6000339050600060096000888152602001908152602001600020905060008160040154905060008260050182815481106104d7576104d661233e565b5b906000526020600020906006020190508373ffffffffffffffffffffffffffffffffffffffff16600960008b815260200190815260200160002060020160019054906101000a900473ffffffffffffffffffffffffffffffffffffffff1673ffffffffffffffffffffffffffffffffffffffff16036105d357600015158160000160019054906101000a900460ff161515146105a8576040517f08c379a000000000000000000000000000000000000000000000000000000000815260040161059f906123b9565b60405180910390fd5b87816001018190555060018160000160016101000a81548160ff021916908315150217905550610652565b600015158160000160029054906101000a900460ff1615151461062b576040517f08c379a0000000000000000000000000000000000000000000000000000000008152600401610622906123b9565b60405180910390fd5b87816002018190555060018160000160026101000a81548160ff0219169083151502179055505b600115158160000160019054906101000a900460ff16151514801561068c5750600115158160000160029054906101000a900460ff161515145b156106ce577f3cf71b22fd9bb7aaf48ba1edb3156ee7acc6daf0087cbaf3d1b32f88beb856096001838b6040516106c5939291906123d9565b60405180910390a15b505050505050505050565b6106e1611420565b6106eb600061149e565b565b60008060009054906101000a900473ffffffffffffffffffffffffffffffffffffffff16905090565b33818173ffffffffffffffffffffffffffffffffffffffff166009600083815260200190815260200160002060020160019054906101000a900473ffffffffffffffffffffffffffffffffffffffff1673ffffffffffffffffffffffffffffffffffffffff1614806107e957508173ffffffffffffffffffffffffffffffffffffffff166009600083815260200190815260200160002060030160009054906101000a900473ffffffffffffffffffffffffffffffffffffffff1673ffffffffffffffffffffffffffffffffffffffff16145b610828576040517f08c379a000000000000000000000000000000000000000000000000000000000815260040161081f9061231e565b60405180910390fd5b6000600960008581526020019081526020016000209050600060018260050180549050610855919061243f565b9050600082600501828154811061086f5761086e61233e565b5b9060005260206000209060060201905060003390508360020160019054906101000a900473ffffffffffffffffffffffffffffffffffffffff1673ffffffffffffffffffffffffffffffffffffffff168173ffffffffffffffffffffffffffffffffffffffff16036109765788886040516020016108ee929190612522565b60405160208183030381529060405280519060200120826001015414610949576040517f08c379a00000000000000000000000000000000000000000000000000000000081526004016109409061259a565b60405180910390fd5b878260050160006101000a81548160ff021916908360038111156109705761096f612211565b5b02179055505b8360030160009054906101000a900473ffffffffffffffffffffffffffffffffffffffff1673ffffffffffffffffffffffffffffffffffffffff168173ffffffffffffffffffffffffffffffffffffffff1603610a685788886040516020016109e0929190612522565b60405160208183030381529060405280519060200120826001015414610a3b576040517f08c379a0000000000000000000000000000000000000000000000000000000008152600401610a329061259a565b60405180910390fd5b878260050160016101000a81548160ff02191690836003811115610a6257610a61612211565b5b02179055505b60006003811115610a7c57610a7b612211565b5b8260050160009054906101000a900460ff166003811115610aa057610a9f612211565b5b14158015610ae4575060006003811115610abd57610abc612211565b5b8260050160019054906101000a900460ff166003811115610ae157610ae0612211565b5b14155b15610b22577fd2ad641e7dd89cb5b31e4101e253e0df2aff5aca4a84c2a48c15002c2cfc28236001604051610b1991906120a6565b60405180910390a15b505050505050505050565b6000600960008381526020019081526020016000209050600060018260050180549050610b5a919061243f565b90506000826005018281548110610b7457610b7361233e565b5b9060005260206000209060060201905060006003811115610b9857610b97612211565b5b8160050160009054906101000a900460ff166003811115610bbc57610bbb612211565b5b14158015610c00575060006003811115610bd957610bd8612211565b5b8160050160019054906101000a900460ff166003811115610bfd57610bfc612211565b5b14155b610c3f576040517f08c379a0000000000000000000000000000000000000000000000000000000008152600401610c3690612606565b60405180910390fd5b6000610c4b8584611562565b905060008103610ddf577f9a1548218be7b15d62eedc65b19b3c4182f0f18f62837e91f3d2a527568fb7546000604051610c8591906126ad565b60405180910390a1836004016000815480929190610ca2906126db565b9190505550610caf611e2d565b60018160000190151590811515815250508460050181908060018154018082558091505060019003906000526020600020906006020160009091909190915060008201518160000160006101000a81548160ff02191690831515021790555060208201518160000160016101000a81548160ff02191690831515021790555060408201518160000160026101000a81548160ff021916908315150217905550606082015181600101556080820151816002015560a0820151816003015560c0820151816004015560e08201518160050160006101000a81548160ff02191690836003811115610da157610da0612211565b5b02179055506101008201518160050160016101000a81548160ff02191690836003811115610dd257610dd1612211565b5b0217905550505050610f0f565b610de9818661185d565b60018460020160006101000a81548160ff02191690836001811115610e1157610e10612211565b5b02179055506000600760008660020160019054906101000a900473ffffffffffffffffffffffffffffffffffffffff1673ffffffffffffffffffffffffffffffffffffffff1673ffffffffffffffffffffffffffffffffffffffff16815260200190815260200160002060006101000a81548160ff0219169083151502179055506000600760008660030160009054906101000a900473ffffffffffffffffffffffffffffffffffffffff1673ffffffffffffffffffffffffffffffffffffffff1673ffffffffffffffffffffffffffffffffffffffff16815260200190815260200160002060006101000a81548160ff0219169083151502179055505b5050505050565b60006032600160009054906101000a900473ffffffffffffffffffffffffffffffffffffffff1673ffffffffffffffffffffffffffffffffffffffff1663dd62ed3e33306040518363ffffffff167c0100000000000000000000000000000000000000000000000000000000028152600401610f93929190612723565b602060405180830381865afa158015610fb0573d6000803e3d6000fd5b505050506040513d601f19601f82011682018060405250810190610fd49190612761565b14611014576040517f08c379a000000000000000000000000000000000000000000000000000000000815260040161100b906127da565b60405180910390fd5b6000600160009054906101000a900473ffffffffffffffffffffffffffffffffffffffff1673ffffffffffffffffffffffffffffffffffffffff166323b872dd333060326040518463ffffffff167c010000000000000000000000000000000000000000000000000000000002815260040161109293929190612835565b6020604051808303816000875af11580156110b1573d6000803e3d6000fd5b505050506040513d601f19601f820116820180604052508101906110d59190612898565b90508091505090565b600160149054906101000a900460ff1661112d576040517f08c379a000000000000000000000000000000000000000000000000000000000815260040161112490612911565b60405180910390fd5b60001515600760003373ffffffffffffffffffffffffffffffffffffffff1673ffffffffffffffffffffffffffffffffffffffff16815260200190815260200160002060009054906101000a900460ff161515146111c0576040517f08c379a00000000000000000000000000000000000000000000000000000000081526004016111b79061297d565b60405180910390fd5b6111c8610f16565b611207576040517f08c379a00000000000000000000000000000000000000000000000000000000081526004016111fe906129e9565b60405180910390fd5b6001600760003373ffffffffffffffffffffffffffffffffffffffff1673ffffffffffffffffffffffffffffffffffffffff16815260200190815260200160002060006101000a81548160ff021916908315150217905550600073ffffffffffffffffffffffffffffffffffffffff16600560009054906101000a900473ffffffffffffffffffffffffffffffffffffffff1673ffffffffffffffffffffffffffffffffffffffff161461132e576000600560009054906101000a900473ffffffffffffffffffffffffffffffffffffffff1690506112e6338261195a565b6000600560006101000a81548173ffffffffffffffffffffffffffffffffffffffff021916908373ffffffffffffffffffffffffffffffffffffffff16021790555050611370565b33600560006101000a81548173ffffffffffffffffffffffffffffffffffffffff021916908373ffffffffffffffffffffffffffffffffffffffff1602179055505b565b600160009054906101000a900473ffffffffffffffffffffffffffffffffffffffff1681565b6113a0611420565b600073ffffffffffffffffffffffffffffffffffffffff168173ffffffffffffffffffffffffffffffffffffffff160361140f576040517f08c379a000000000000000000000000000000000000000000000000000000000815260040161140690612a7b565b60405180910390fd5b6114188161149e565b50565b603281565b611428611bf7565b73ffffffffffffffffffffffffffffffffffffffff166114466106ed565b73ffffffffffffffffffffffffffffffffffffffff161461149c576040517f08c379a000000000000000000000000000000000000000000000000000000000815260040161149390612ae7565b60405180910390fd5b565b60008060009054906101000a900473ffffffffffffffffffffffffffffffffffffffff169050816000806101000a81548173ffffffffffffffffffffffffffffffffffffffff021916908373ffffffffffffffffffffffffffffffffffffffff1602179055508173ffffffffffffffffffffffffffffffffffffffff168173ffffffffffffffffffffffffffffffffffffffff167f8be0079c531659141344cd1fd0a4f28419497f9722a3daafe3b4186f6b6457e060405160405180910390a35050565b60008060096000858152602001908152602001600020905060008160050184815481106115925761159161233e565b5b9060005260206000209060060201905060008160050160009054906101000a900460ff16905060008260050160019054906101000a900460ff169050600160038111156115e2576115e1612211565b5b8260038111156115f5576115f4612211565b5b036116a5576001600381111561160e5761160d612211565b5b81600381111561162157611620612211565b5b03611633576000945050505050611857565b6002600381111561164757611646612211565b5b81600381111561165a57611659612211565b5b0361166c576001945050505050611857565b60038081111561167f5761167e612211565b5b81600381111561169257611691612211565b5b036116a4576002945050505050611857565b5b600260038111156116b9576116b8612211565b5b8260038111156116cc576116cb612211565b5b0361177c57600260038111156116e5576116e4612211565b5b8160038111156116f8576116f7612211565b5b0361170a576000945050505050611857565b60038081111561171d5761171c612211565b5b8160038111156117305761172f612211565b5b03611742576001945050505050611857565b6001600381111561175657611755612211565b5b81600381111561176957611768612211565b5b0361177b576002945050505050611857565b5b60038081111561178f5761178e612211565b5b8260038111156117a2576117a1612211565b5b03611852576003808111156117ba576117b9612211565b5b8160038111156117cd576117cc612211565b5b036117df576000945050505050611857565b600160038111156117f3576117f2612211565b5b81600381111561180657611805612211565b5b03611818576001945050505050611857565b6002600381111561182c5761182b612211565b5b81600381111561183f5761183e612211565b5b03611851576002945050505050611857565b5b505050505b92915050565b60006009600083815260200190815260200160002090506000600184036118e2578160020160019054906101000a900473ffffffffffffffffffffffffffffffffffffffff1690507f9a1548218be7b15d62eedc65b19b3c4182f0f18f62837e91f3d2a527568fb75460016040516118d59190612b8e565b60405180910390a161194b565b6002840361194a578160020160019054906101000a900473ffffffffffffffffffffffffffffffffffffffff1690507f9a1548218be7b15d62eedc65b19b3c4182f0f18f62837e91f3d2a527568fb75460026040516119419190612c43565b60405180910390a15b5b61195481611bff565b50505050565b600060068054905090506000600960008381526020019081526020016000209050611983611e2d565b600181600001901515908115158152505060018260000160006101000a81548160ff02191690831515021790555082826001018190555060008260020160006101000a81548160ff021916908360018111156119e2576119e1612211565b5b0217905550848260020160016101000a81548173ffffffffffffffffffffffffffffffffffffffff021916908373ffffffffffffffffffffffffffffffffffffffff160217905550838260030160006101000a81548173ffffffffffffffffffffffffffffffffffffffff021916908373ffffffffffffffffffffffffffffffffffffffff160217905550600082600401819055508160050181908060018154018082558091505060019003906000526020600020906006020160009091909190915060008201518160000160006101000a81548160ff02191690831515021790555060208201518160000160016101000a81548160ff02191690831515021790555060408201518160000160026101000a81548160ff021916908315150217905550606082015181600101556080820151816002015560a0820151816003015560c0820151816004015560e08201518160050160006101000a81548160ff02191690836003811115611b5857611b57612211565b5b02179055506101008201518160050160016101000a81548160ff02191690836003811115611b8957611b88612211565b5b0217905550505060068390806001815401808255809150506001900390600052602060002001600090919091909150557fbd19c47e9925eb6f7be8bb1c13a841e0240aaeaf17f217e90022e9c8eb66877f83604051611be89190611ec8565b60405180910390a15050505050565b600033905090565b60006064605560026032611c139190612c71565b611c1d9190612c71565b611c279190612ce2565b905060006064600f60026032611c3d9190612c71565b611c479190612c71565b611c519190612ce2565b9050600160009054906101000a900473ffffffffffffffffffffffffffffffffffffffff1673ffffffffffffffffffffffffffffffffffffffff1663a9059cbb84846040518363ffffffff167c0100000000000000000000000000000000000000000000000000000000028152600401611ccc929190612d13565b6020604051808303816000875af1158015611ceb573d6000803e3d6000fd5b505050506040513d601f19601f82011682018060405250810190611d0f9190612898565b50600160009054906101000a900473ffffffffffffffffffffffffffffffffffffffff1673ffffffffffffffffffffffffffffffffffffffff1663a9059cbb600360009054906101000a900473ffffffffffffffffffffffffffffffffffffffff16836040518363ffffffff167c0100000000000000000000000000000000000000000000000000000000028152600401611dab929190612d13565b6020604051808303816000875af1158015611dca573d6000803e3d6000fd5b505050506040513d601f19601f82011682018060405250810190611dee9190612898565b507f89e7506b7966091c11ce90e260a5a7fbcbda973233909579770070b7434dadd58284604051611e20929190612d3c565b60405180910390a1505050565b6040518061012001604052806000151581526020016000151581526020016000151581526020016000801916815260200160008019168152602001600080191681526020016000801916815260200160006003811115611e9057611e8f612211565b5b815260200160006003811115611ea957611ea8612211565b5b81525090565b6000819050919050565b611ec281611eaf565b82525050565b6000602082019050611edd6000830184611eb9565b92915050565b600080fd5b611ef181611eaf565b8114611efc57600080fd5b50565b600081359050611f0e81611ee8565b92915050565b6000819050919050565b611f2781611f14565b8114611f3257600080fd5b50565b600081359050611f4481611f1e565b92915050565b60008060408385031215611f6157611f60611ee3565b5b6000611f6f85828601611eff565b9250506020611f8085828601611f35565b9150509250929050565b600073ffffffffffffffffffffffffffffffffffffffff82169050919050565b6000611fb582611f8a565b9050919050565b611fc581611faa565b82525050565b6000602082019050611fe06000830184611fbc565b92915050565b60048110611ff357600080fd5b50565b60008135905061200581611fe6565b92915050565b60008060006060848603121561202457612023611ee3565b5b600061203286828701611eff565b935050602061204386828701611ff6565b925050604061205486828701611eff565b9150509250925092565b60006020828403121561207457612073611ee3565b5b600061208284828501611eff565b91505092915050565b60008115159050919050565b6120a08161208b565b82525050565b60006020820190506120bb6000830184612097565b92915050565b6000819050919050565b60006120e66120e16120dc84611f8a565b6120c1565b611f8a565b9050919050565b60006120f8826120cb565b9050919050565b600061210a826120ed565b9050919050565b61211a816120ff565b82525050565b60006020820190506121356000830184612111565b92915050565b61214481611faa565b811461214f57600080fd5b50565b6000813590506121618161213b565b92915050565b60006020828403121561217d5761217c611ee3565b5b600061218b84828501612152565b91505092915050565b600082825260208201905092915050565b7f4e6f20737563682067616d650000000000000000000000000000000000000000600082015250565b60006121db600c83612194565b91506121e6826121a5565b602082019050919050565b6000602082019050818103600083015261220a816121ce565b9050919050565b7f4e487b7100000000000000000000000000000000000000000000000000000000600052602160045260246000fd5b7f546861742067616d652068617320616c72656164792066696e69736865640000600082015250565b6000612276601e83612194565b915061228182612240565b602082019050919050565b600060208201905081810360008301526122a581612269565b9050919050565b7f506c6179657220646f6573206e6f742062656c6f6e6720746f2074686973206760008201527f616d650000000000000000000000000000000000000000000000000000000000602082015250565b6000612308602383612194565b9150612313826122ac565b604082019050919050565b60006020820190508181036000830152612337816122fb565b9050919050565b7f4e487b7100000000000000000000000000000000000000000000000000000000600052603260045260246000fd5b7f4d6f766520616c726561647920646f6e6520696e207468697320726f756e6421600082015250565b60006123a3602083612194565b91506123ae8261236d565b602082019050919050565b600060208201905081810360008301526123d281612396565b9050919050565b60006060820190506123ee6000830186612097565b6123fb6020830185611eb9565b6124086040830184611eb9565b949350505050565b7f4e487b7100000000000000000000000000000000000000000000000000000000600052601160045260246000fd5b600061244a82611eaf565b915061245583611eaf565b925082820390508181111561246d5761246c612410565b5b92915050565b6000819050919050565b61248e61248982611eaf565b612473565b82525050565b600481106124a5576124a4612211565b5b50565b60008190506124b682612494565b919050565b60006124c6826124a8565b9050919050565b60007f010000000000000000000000000000000000000000000000000000000000000082029050919050565b6000612504826124cd565b9050919050565b61251c612517826124bb565b6124f9565b82525050565b600061252e828561247d565b60208201915061253e828461250b565b6001820191508190509392505050565b7f4d6f76652f53616c7420646f6573206e6f74206d617463680000000000000000600082015250565b6000612584601883612194565b915061258f8261254e565b602082019050919050565b600060208201905081810360008301526125b381612577565b9050919050565b7f4d6f76657320617265206e6f74206465636f6465642079657421000000000000600082015250565b60006125f0601a83612194565b91506125fb826125ba565b602082019050919050565b6000602082019050818103600083015261261f816125e3565b9050919050565b7f4472617700000000000000000000000000000000000000000000000000000000600082015250565b600061265c600483612194565b915061266782612626565b602082019050919050565b6000819050919050565b600061269761269261268d84612672565b6120c1565b611eaf565b9050919050565b6126a78161267c565b82525050565b600060408201905081810360008301526126c68161264f565b90506126d5602083018461269e565b92915050565b60006126e682611eaf565b91507fffffffffffffffffffffffffffffffffffffffffffffffffffffffffffffffff820361271857612717612410565b5b600182019050919050565b60006040820190506127386000830185611fbc565b6127456020830184611fbc565b9392505050565b60008151905061275b81611ee8565b92915050565b60006020828403121561277757612776611ee3565b5b60006127858482850161274c565b91505092915050565b7f5472616e736665722065786163746c79203120746f6b656e0000000000000000600082015250565b60006127c4601883612194565b91506127cf8261278e565b602082019050919050565b600060208201905081810360008301526127f3816127b7565b9050919050565b6000819050919050565b600061281f61281a612815846127fa565b6120c1565b611eaf565b9050919050565b61282f81612804565b82525050565b600060608201905061284a6000830186611fbc565b6128576020830185611fbc565b6128646040830184612826565b949350505050565b6128758161208b565b811461288057600080fd5b50565b6000815190506128928161286c565b92915050565b6000602082840312156128ae576128ad611ee3565b5b60006128bc84828501612883565b91505092915050565b7f436f6e747261637420697320756e616374697665000000000000000000000000600082015250565b60006128fb601483612194565b9150612906826128c5565b602082019050919050565b6000602082019050818103600083015261292a816128ee565b9050919050565b7f596f752061726520616c72656164792077616974696e672f706c6179696e6721600082015250565b6000612967602083612194565b915061297282612931565b602082019050919050565b600060208201905081810360008301526129968161295a565b9050919050565b7f4465706f736974206469646e607420776f726b00000000000000000000000000600082015250565b60006129d3601383612194565b91506129de8261299d565b602082019050919050565b60006020820190508181036000830152612a02816129c6565b9050919050565b7f4f776e61626c653a206e6577206f776e657220697320746865207a65726f206160008201527f6464726573730000000000000000000000000000000000000000000000000000602082015250565b6000612a65602683612194565b9150612a7082612a09565b604082019050919050565b60006020820190508181036000830152612a9481612a58565b9050919050565b7f4f776e61626c653a2063616c6c6572206973206e6f7420746865206f776e6572600082015250565b6000612ad1602083612194565b9150612adc82612a9b565b602082019050919050565b60006020820190508181036000830152612b0081612ac4565b9050919050565b7f506c6179657220312057696e0000000000000000000000000000000000000000600082015250565b6000612b3d600c83612194565b9150612b4882612b07565b602082019050919050565b6000819050919050565b6000612b78612b73612b6e84612b53565b6120c1565b611eaf565b9050919050565b612b8881612b5d565b82525050565b60006040820190508181036000830152612ba781612b30565b9050612bb66020830184612b7f565b92915050565b7f506c6179657220322057696e0000000000000000000000000000000000000000600082015250565b6000612bf2600c83612194565b9150612bfd82612bbc565b602082019050919050565b6000819050919050565b6000612c2d612c28612c2384612c08565b6120c1565b611eaf565b9050919050565b612c3d81612c12565b82525050565b60006040820190508181036000830152612c5c81612be5565b9050612c6b6020830184612c34565b92915050565b6000612c7c82611eaf565b9150612c8783611eaf565b9250828202612c9581611eaf565b91508282048414831517612cac57612cab612410565b5b5092915050565b7f4e487b7100000000000000000000000000000000000000000000000000000000600052601260045260246000fd5b6000612ced82611eaf565b9150612cf883611eaf565b925082612d0857612d07612cb3565b5b828204905092915050565b6000604082019050612d286000830185611fbc565b612d356020830184611eb9565b9392505050565b6000604082019050612d516000830185611eb9565b612d5e6020830184611fbc565b939250505056fea26469706673582212204c4c4cf3c71a913fcfd183ecfa58b256e1ef27e4983920aa0e3ccdf8c2ae40cf64736f6c63430008150033",
  "immutableReferences": {},
  "source": "// SPDX-License-Identifier: MIT\r\npragma solidity ^0.8.0;\r\n\r\nimport \"@openzeppelin/contracts/access/Ownable.sol\";\r\nimport \"@openzeppelin/contracts/token/ERC20/IERC20.sol\";\r\n\r\ncontract GamePRS is Ownable {\r\n    IERC20 public PrsToken;\r\n\r\n    uint public constant prizeRatio = 85;\r\n    uint public constant feeRatio = 15;\r\n    uint public constant entryPrice = 50;\r\n\r\n    bool isActive;\r\n\r\n    address tokenAddr;\r\n    address ownerAddr;\r\n\r\n    address[] playersArr;\r\n    address waitingRoom = address(0);\r\n    uint[] gameID;\r\n\r\n    mapping(address => bool) playersWaiting;\r\n    mapping(address => uint) totalWins;\r\n    mapping(uint => Game) games;\r\n\r\n    enum Move {\r\n        Default,\r\n        Paper,\r\n        Rock,\r\n        Scissors\r\n    }\r\n\r\n    enum GameStatus {\r\n        Ongoing,\r\n        Finished\r\n    }\r\n\r\n    struct Round {\r\n        bool created;\r\n        bool playerDoneMove1;\r\n        bool playerDoneMove2;\r\n        bytes32 hashedMovePlayer1;\r\n        bytes32 hashedMovePlayer2;\r\n        bytes32 saltPlayer1;\r\n        bytes32 saltPlayer2;\r\n        Move movePlayer1;\r\n        Move movePlayer2;\r\n    }\r\n\r\n    struct Game {\r\n        bool created;\r\n        uint id;\r\n        GameStatus gameStatus;\r\n        address player1;\r\n        address player2;\r\n        uint roundsNum;\r\n        Round[] roundsArray;\r\n    }\r\n\r\n    event GameCreated(uint id);\r\n    event RoundEnded(string info, uint result);\r\n    event MovesDone(bool done, uint idRound, uint gameId);\r\n    event SaltReceived(bool received);\r\n    event PrizeSent(uint amount, address winner);\r\n    event PutIntoWaitingRoom(string);\r\n\r\n    modifier Active() {\r\n        require(isActive, \"Contract is unactive\");\r\n        _;\r\n    }\r\n\r\n    modifier GameValid(uint _id) {\r\n        require(games[_id].created, \"No such game\");\r\n        require(\r\n            games[_id].gameStatus == GameStatus.Ongoing,\r\n            \"That game has already finished\"\r\n        );\r\n        _;\r\n    }\r\n\r\n    modifier PlayerValid(address player, uint _id) {\r\n        require(\r\n            (games[_id].player1 == player || games[_id].player2 == player),\r\n            \"Player does not belong to this game\"\r\n        );\r\n        _;\r\n    }\r\n\r\n    constructor(address _tokenAddr) {\r\n        isActive = true;\r\n        ownerAddr = owner();\r\n        renounceOwnership();\r\n        tokenAddr = _tokenAddr;\r\n        PrsToken = IERC20(tokenAddr);\r\n    }\r\n\r\n    function withdraw(address _addr) private {\r\n        uint _prize = ((entryPrice * 2) * prizeRatio) / 100;\r\n        uint _fee = ((entryPrice * 2) * feeRatio) / 100;\r\n        PrsToken.transfer(_addr, _prize);\r\n        PrsToken.transfer(ownerAddr, _fee);\r\n        emit PrizeSent(_prize, _addr);\r\n    }\r\n\r\n    function CreateGame(address _player1, address _player2) private {\r\n        uint id = gameID.length;\r\n        Game storage game = games[id];\r\n        Round memory round;\r\n        round.created = true;\r\n        game.created = true;\r\n        game.id = id;\r\n        game.gameStatus = GameStatus.Ongoing;\r\n        game.player1 = _player1;\r\n        game.player2 = _player2;\r\n        game.roundsNum = 0;\r\n        game.roundsArray.push(round);\r\n        gameID.push(id);\r\n        emit GameCreated(id);\r\n    }\r\n\r\n    function resultRound(\r\n        uint _gameID,\r\n        uint _roundID\r\n    ) private view returns (uint result) {\r\n        Game storage game = games[_gameID];\r\n        Round storage round = game.roundsArray[_roundID];\r\n        Move p1 = round.movePlayer1;\r\n        Move p2 = round.movePlayer2;\r\n\r\n        //2 - Player 2 Win, 1 - Player 1 Win, 0 - Draw\r\n\r\n        if (p1 == Move.Paper) {\r\n            if (p2 == Move.Paper) return 0;\r\n            else if (p2 == Move.Rock) return 1;\r\n            else if (p2 == Move.Scissors) return 2;\r\n        }\r\n        if (p1 == Move.Rock) {\r\n            if (p2 == Move.Rock) return 0;\r\n            else if (p2 == Move.Scissors) return 1;\r\n            else if (p2 == Move.Paper) return 2;\r\n        }\r\n        if (p1 == Move.Scissors) {\r\n            if (p2 == Move.Scissors) return 0;\r\n            else if (p2 == Move.Paper) return 1;\r\n            else if (p2 == Move.Rock) return 2;\r\n        }\r\n    }\r\n\r\n    function resolveGame(uint _result, uint _gameID) private {\r\n        Game storage game = games[_gameID];\r\n        address winner;\r\n        if (_result == 1) {\r\n            winner = game.player1;\r\n            emit RoundEnded(\"Player 1 Win\", 1);\r\n        } else if (_result == 2) {\r\n            winner = game.player1;\r\n            emit RoundEnded(\"Player 2 Win\", 2);\r\n        }\r\n        withdraw(winner);\r\n    }\r\n\r\n    function receiveSalt(\r\n        uint _Usalt,\r\n        Move _move,\r\n        uint gameId\r\n    ) public PlayerValid(msg.sender, gameId) {\r\n        Game storage game = games[gameId];\r\n        uint len = game.roundsArray.length - 1;\r\n        Round storage round = game.roundsArray[len];\r\n        address player = msg.sender;\r\n        if (player == game.player1) {\r\n            require(\r\n                round.hashedMovePlayer1 ==\r\n                    keccak256(abi.encodePacked(_Usalt, _move)),\r\n                \"Move/Salt does not match\"\r\n            );\r\n            round.movePlayer1 = _move;\r\n        }\r\n        if (player == game.player2) {\r\n            require(\r\n                round.hashedMovePlayer1 ==\r\n                    keccak256(abi.encodePacked(_Usalt, _move)),\r\n                \"Move/Salt does not match\"\r\n            );\r\n            round.movePlayer2 = _move;\r\n        }\r\n        if (\r\n            round.movePlayer1 != Move.Default &&\r\n            round.movePlayer2 != Move.Default\r\n        ) {\r\n            emit SaltReceived(true);\r\n        }\r\n    }\r\n\r\n    function endSpiel(uint _id) external {\r\n        Game storage game = games[_id];\r\n        uint roundNum = game.roundsArray.length - 1;\r\n        Round storage round = game.roundsArray[roundNum];\r\n        require(\r\n            round.movePlayer1 != Move.Default &&\r\n                round.movePlayer2 != Move.Default,\r\n            \"Moves are not decoded yet!\"\r\n        );\r\n        uint result = resultRound(_id, roundNum);\r\n        if (result == 0) {\r\n            emit RoundEnded(\"Draw\", 0);\r\n            game.roundsNum++;\r\n            Round memory newRound;\r\n            newRound.created = true;\r\n            game.roundsArray.push(newRound);\r\n        } else {\r\n            resolveGame(result, _id);\r\n            game.gameStatus = GameStatus.Finished;\r\n            playersWaiting[game.player1] = false;\r\n            playersWaiting[game.player2] = false;\r\n        }\r\n    }\r\n\r\n    function joinGame() external Active {\r\n        require(\r\n            playersWaiting[msg.sender] == false,\r\n            \"You are already waiting/playing!\"\r\n        );\r\n        require(deposit(), \"Deposit didn`t work\");\r\n        playersWaiting[msg.sender] = true;\r\n        if (waitingRoom != address(0)) {\r\n            address SecondPlayer = waitingRoom;\r\n            CreateGame(msg.sender, SecondPlayer);\r\n            waitingRoom = address(0);\r\n        } else {\r\n            waitingRoom = msg.sender;\r\n        }\r\n    }\r\n\r\n    function makeMove(\r\n        uint _id,\r\n        bytes32 _hashedMove\r\n    ) external GameValid(_id) PlayerValid(msg.sender, _id) {\r\n        address player = msg.sender;\r\n\r\n        Game storage game = games[_id];\r\n        uint roundNum = game.roundsNum;\r\n        Round storage round = game.roundsArray[roundNum];\r\n        if (games[_id].player1 == player) {\r\n            require(\r\n                round.playerDoneMove1 == false,\r\n                \"Move already done in this round!\"\r\n            );\r\n            round.hashedMovePlayer1 = _hashedMove;\r\n            round.playerDoneMove1 = true;\r\n        } else {\r\n            require(\r\n                round.playerDoneMove2 == false,\r\n                \"Move already done in this round!\"\r\n            );\r\n            round.hashedMovePlayer2 = _hashedMove;\r\n            round.playerDoneMove2 = true;\r\n        }\r\n\r\n        if (round.playerDoneMove1 == true && round.playerDoneMove2 == true) {\r\n            emit MovesDone(true, roundNum, _id);\r\n        }\r\n    }\r\n\r\n    function deposit() public payable returns (bool) {\r\n        require(\r\n            PrsToken.allowance(msg.sender, address(this)) == 50,\r\n            \"Transfer exactly 1 token\"\r\n        );\r\n        bool success = PrsToken.transferFrom(msg.sender, address(this), 50);\r\n        return success;\r\n    }\r\n}\r\n",
  "sourcePath": "C:\\Users\\God\\SolidityStudy\\PaperRockScissors\\contracts\\GameSecurePRS.sol",
  "compiler": {
    "name": "solc",
    "version": "0.8.21+commit.d9974bed.Emscripten.clang"
  },
  "schemaVersion": "3.4.15",
  "updatedAt": "2023-09-03T16:35:55.407Z",
  "devdoc": {
    "kind": "dev",
    "methods": {
      "owner()": {
        "details": "Returns the address of the current owner."
      },
      "renounceOwnership()": {
        "details": "Leaves the contract without owner. It will not be possible to call `onlyOwner` functions. Can only be called by the current owner. NOTE: Renouncing ownership will leave the contract without an owner, thereby disabling any functionality that is only available to the owner."
      },
      "transferOwnership(address)": {
        "details": "Transfers ownership of the contract to a new account (`newOwner`). Can only be called by the current owner."
      }
    },
    "version": 1
  },
  "userdoc": {
    "kind": "user",
    "methods": {},
    "version": 1
  }
}