{
  "contractName": "BasicTest",
  "abi": [
    {
      "inputs": [],
      "stateMutability": "nonpayable",
      "type": "constructor"
    },
    {
      "anonymous": false,
      "inputs": [
        {
          "indexed": false,
          "internalType": "string",
          "name": "name",
          "type": "string"
        },
        {
          "indexed": false,
          "internalType": "uint256",
          "name": "id",
          "type": "uint256"
        }
      ],
      "name": "CustomerCreated",
      "type": "event"
    },
    {
      "anonymous": false,
      "inputs": [
        {
          "indexed": false,
          "internalType": "enum BasicTest.DooblonCoin",
          "name": "coin",
          "type": "uint8"
        },
        {
          "indexed": false,
          "internalType": "uint256",
          "name": "quantity",
          "type": "uint256"
        }
      ],
      "name": "CustomerFunded",
      "type": "event"
    },
    {
      "anonymous": false,
      "inputs": [
        {
          "indexed": false,
          "internalType": "string",
          "name": "name",
          "type": "string"
        },
        {
          "indexed": false,
          "internalType": "uint256",
          "name": "id",
          "type": "uint256"
        }
      ],
      "name": "CustomerJoinedStockMarket",
      "type": "event"
    },
    {
      "anonymous": false,
      "inputs": [
        {
          "indexed": false,
          "internalType": "string",
          "name": "",
          "type": "string"
        }
      ],
      "name": "NoMatchingOffer",
      "type": "event"
    },
    {
      "anonymous": false,
      "inputs": [
        {
          "indexed": false,
          "internalType": "uint256",
          "name": "customerID",
          "type": "uint256"
        },
        {
          "indexed": false,
          "internalType": "enum BasicTest.DooblonCoin",
          "name": "givenCoin",
          "type": "uint8"
        },
        {
          "indexed": false,
          "internalType": "enum BasicTest.DooblonCoin",
          "name": "takeCoin",
          "type": "uint8"
        },
        {
          "indexed": false,
          "internalType": "uint256",
          "name": "quantityGiven",
          "type": "uint256"
        },
        {
          "indexed": false,
          "internalType": "uint256",
          "name": "quantityExpected",
          "type": "uint256"
        },
        {
          "indexed": false,
          "internalType": "uint256",
          "name": "offerID",
          "type": "uint256"
        }
      ],
      "name": "OfferPlaced",
      "type": "event"
    },
    {
      "anonymous": false,
      "inputs": [
        {
          "indexed": false,
          "internalType": "string",
          "name": "name",
          "type": "string"
        }
      ],
      "name": "StockMarketCreated",
      "type": "event"
    },
    {
      "anonymous": false,
      "inputs": [
        {
          "indexed": false,
          "internalType": "string",
          "name": "",
          "type": "string"
        },
        {
          "indexed": false,
          "internalType": "uint256",
          "name": "tradeID",
          "type": "uint256"
        }
      ],
      "name": "TradeInitiated",
      "type": "event"
    },
    {
      "inputs": [],
      "name": "randomNum",
      "outputs": [
        {
          "internalType": "uint256",
          "name": "",
          "type": "uint256"
        }
      ],
      "stateMutability": "view",
      "type": "function",
      "constant": true
    },
    {
      "inputs": [
        {
          "internalType": "string",
          "name": "name",
          "type": "string"
        }
      ],
      "name": "createCustomer",
      "outputs": [],
      "stateMutability": "nonpayable",
      "type": "function"
    },
    {
      "inputs": [
        {
          "internalType": "uint256",
          "name": "id",
          "type": "uint256"
        }
      ],
      "name": "checkCustomerExists",
      "outputs": [
        {
          "internalType": "bool",
          "name": "",
          "type": "bool"
        }
      ],
      "stateMutability": "view",
      "type": "function",
      "constant": true
    },
    {
      "inputs": [
        {
          "internalType": "string",
          "name": "name",
          "type": "string"
        }
      ],
      "name": "checkStockMarketExists",
      "outputs": [
        {
          "internalType": "string",
          "name": "",
          "type": "string"
        }
      ],
      "stateMutability": "view",
      "type": "function",
      "constant": true
    },
    {
      "inputs": [
        {
          "internalType": "uint256",
          "name": "customerID",
          "type": "uint256"
        },
        {
          "internalType": "enum BasicTest.DooblonCoin",
          "name": "coin",
          "type": "uint8"
        },
        {
          "internalType": "uint256",
          "name": "quantity",
          "type": "uint256"
        }
      ],
      "name": "fundCustomerWallet",
      "outputs": [],
      "stateMutability": "nonpayable",
      "type": "function"
    },
    {
      "inputs": [
        {
          "internalType": "string",
          "name": "marketName",
          "type": "string"
        },
        {
          "internalType": "uint256",
          "name": "customerID",
          "type": "uint256"
        }
      ],
      "name": "customerJoinStockMarket",
      "outputs": [],
      "stateMutability": "nonpayable",
      "type": "function"
    },
    {
      "inputs": [
        {
          "internalType": "string",
          "name": "stockMarketName",
          "type": "string"
        },
        {
          "internalType": "uint256",
          "name": "customerID",
          "type": "uint256"
        },
        {
          "internalType": "enum BasicTest.DooblonCoin",
          "name": "giveCoin",
          "type": "uint8"
        },
        {
          "internalType": "enum BasicTest.DooblonCoin",
          "name": "takeCoin",
          "type": "uint8"
        },
        {
          "internalType": "uint256",
          "name": "quantity",
          "type": "uint256"
        }
      ],
      "name": "placeOffer",
      "outputs": [],
      "stateMutability": "nonpayable",
      "type": "function"
    },
    {
      "inputs": [
        {
          "internalType": "string",
          "name": "stockMarketName",
          "type": "string"
        },
        {
          "internalType": "uint256",
          "name": "offerID",
          "type": "uint256"
        }
      ],
      "name": "initiateTrade",
      "outputs": [],
      "stateMutability": "nonpayable",
      "type": "function"
    },
    {
      "inputs": [
        {
          "internalType": "string",
          "name": "marketName",
          "type": "string"
        },
        {
          "internalType": "uint256",
          "name": "tradeID",
          "type": "uint256"
        }
      ],
      "name": "getTradeInfo",
      "outputs": [
        {
          "internalType": "string",
          "name": "",
          "type": "string"
        },
        {
          "internalType": "enum BasicTest.DooblonCoin",
          "name": "",
          "type": "uint8"
        },
        {
          "internalType": "uint256",
          "name": "",
          "type": "uint256"
        },
        {
          "internalType": "string",
          "name": "",
          "type": "string"
        },
        {
          "internalType": "enum BasicTest.DooblonCoin",
          "name": "",
          "type": "uint8"
        },
        {
          "internalType": "uint256",
          "name": "",
          "type": "uint256"
        }
      ],
      "stateMutability": "view",
      "type": "function",
      "constant": true
    },
    {
      "inputs": [
        {
          "internalType": "uint256",
          "name": "customerID",
          "type": "uint256"
        },
        {
          "internalType": "enum BasicTest.DooblonCoin",
          "name": "coin",
          "type": "uint8"
        }
      ],
      "name": "showWallet",
      "outputs": [
        {
          "internalType": "uint256",
          "name": "",
          "type": "uint256"
        }
      ],
      "stateMutability": "view",
      "type": "function",
      "constant": true
    },
    {
      "inputs": [
        {
          "internalType": "enum BasicTest.DooblonCoin",
          "name": "coin",
          "type": "uint8"
        }
      ],
      "name": "showCoinPrice",
      "outputs": [
        {
          "internalType": "uint256",
          "name": "",
          "type": "uint256"
        }
      ],
      "stateMutability": "view",
      "type": "function",
      "constant": true
    },
    {
      "inputs": [
        {
          "internalType": "uint256",
          "name": "customerID",
          "type": "uint256"
        }
      ],
      "name": "showCustomerMarkets",
      "outputs": [
        {
          "internalType": "string[]",
          "name": "",
          "type": "string[]"
        }
      ],
      "stateMutability": "view",
      "type": "function",
      "constant": true
    },
    {
      "inputs": [
        {
          "internalType": "string",
          "name": "marketName",
          "type": "string"
        }
      ],
      "name": "showCustomersOnMarket",
      "outputs": [
        {
          "internalType": "string[]",
          "name": "",
          "type": "string[]"
        }
      ],
      "stateMutability": "view",
      "type": "function",
      "constant": true
    }
  ],
  "bytecode": "0x608060405260405180606001604052806040518060400160405280600b81526020017f41626f62614d61726b657400000000000000000000000000000000000000000081525081526020016040518060400160405280600a81526020017f5065706553746f636b730000000000000000000000000000000000000000000081525081526020016040518060400160405280600e81526020017f4465657a204e75747a20496e632e0000000000000000000000000000000000008152508152506001906003620000d0929190620002e1565b50348015620000de57600080fd5b5060005b6003811015620001c457620001ae60018260038110620001075762000106620003c1565b5b01805462000115906200041f565b80601f016020809104026020016040519081016040528092919081815260200182805462000143906200041f565b8015620001945780601f10620001685761010080835404028352916020019162000194565b820191906000526020600020905b8154815290600101906020018083116200017657829003601f168201915b50505050506200024f640100000000026401000000009004565b8080620001bb906200048d565b915050620000e2565b506001600080806001811115620001e057620001df620004da565b5b6001811115620001f557620001f4620004da565b5b8152602001908152602001600020819055506064600080600180811115620002225762000221620004da565b5b6001811115620002375762000236620004da565b5b81526020019081526020016000208190555062000910565b600060048260405162000263919062000582565b9081526020016040518091039020905081816000019081620002869190620007a2565b5060018160050160006101000a81548160ff0219169083151502179055507fff2bf8d26ad2c887ea402ab97d15b4a33383d7b7b48a614e1bed3f475ea3dd8782604051620002d59190620008ec565b60405180910390a15050565b826003810192821562000321579160200282015b82811115620003205782518290816200030f9190620007a2565b5091602001919060010190620002f5565b5b50905062000330919062000334565b5090565b5b808211156200035857600081816200034e91906200035c565b5060010162000335565b5090565b5080546200036a906200041f565b6000825580601f106200037e57506200039f565b601f0160209004906000526020600020908101906200039e9190620003a2565b5b50565b5b80821115620003bd576000816000905550600101620003a3565b5090565b7f4e487b7100000000000000000000000000000000000000000000000000000000600052603260045260246000fd5b7f4e487b7100000000000000000000000000000000000000000000000000000000600052602260045260246000fd5b600060028204905060018216806200043857607f821691505b6020821081036200044e576200044d620003f0565b5b50919050565b7f4e487b7100000000000000000000000000000000000000000000000000000000600052601160045260246000fd5b6000819050919050565b60006200049a8262000483565b91507fffffffffffffffffffffffffffffffffffffffffffffffffffffffffffffffff8203620004cf57620004ce62000454565b5b600182019050919050565b7f4e487b7100000000000000000000000000000000000000000000000000000000600052602160045260246000fd5b600081519050919050565b600081905092915050565b60005b838110156200053f57808201518184015260208101905062000522565b60008484015250505050565b6000620005588262000509565b62000564818562000514565b9350620005768185602086016200051f565b80840191505092915050565b60006200059082846200054b565b915081905092915050565b7f4e487b7100000000000000000000000000000000000000000000000000000000600052604160045260246000fd5b60008190508160005260206000209050919050565b60006020601f8301049050919050565b60008160020a8302905092915050565b600060088302620006317fffffffffffffffffffffffffffffffffffffffffffffffffffffffffffffffff82620005ef565b6200063d8683620005ef565b95508019841693508086168417925050509392505050565b6000819050919050565b6000620006806200067a620006748462000483565b62000655565b62000483565b9050919050565b6000819050919050565b6200069c836200065f565b620006b4620006ab8262000687565b848454620005ff565b825550505050565b600090565b620006cb620006bc565b620006d881848462000691565b505050565b5b818110156200070057620006f4600082620006c1565b600181019050620006de565b5050565b601f8211156200074f576200071981620005ca565b6200072484620005df565b8101602085101562000734578190505b6200074c6200074385620005df565b830182620006dd565b50505b505050565b60008160020a8304905092915050565b6000620007776000198460080262000754565b1980831691505092915050565b600062000792838362000764565b9150826002028217905092915050565b620007ad8262000509565b67ffffffffffffffff811115620007c957620007c86200059b565b5b620007d582546200041f565b620007e282828562000704565b600060209050601f8311600181146200081a576000841562000805578287015190505b62000811858262000784565b86555062000881565b601f1984166200082a86620005ca565b60005b8281101562000854578489015182556001820191506020850194506020810190506200082d565b8683101562000874578489015162000870601f89168262000764565b8355505b6001600288020188555050505b505050505050565b600082825260208201905092915050565b6000601f19601f8301169050919050565b6000620008b88262000509565b620008c4818562000889565b9350620008d68185602086016200051f565b620008e1816200089a565b840191505092915050565b60006020820190508181036000830152620009088184620008ab565b905092915050565b61261d80620009206000396000f3fe608060405234801561001057600080fd5b50600436106100ec576000357c0100000000000000000000000000000000000000000000000000000000900480639f8cd4b2116100a9578063b527139511610083578063b527139514610256578063bf89170b14610272578063cf26f29f146102a2578063f630aa65146102d2576100ec565b80639f8cd4b2146101d5578063b03a9019146101f1578063b07716d714610221576100ec565b80631083bb78146100f157806326c403ed1461010d5780632b155c88146101295780633890e061146101595780636214afc4146101755780639babfb85146101a5575b600080fd5b61010b6004803603810190610106919061173f565b6102f0565b005b610127600480360381019061012291906117be565b610389565b005b610143600480360381019061013e919061173f565b610a49565b6040516101509190611899565b60405180910390f35b610173600480360381019061016e91906118e0565b610afa565b005b61018f600480360381019061018a9190611933565b610bea565b60405161019c9190611982565b60405180910390f35b6101bf60048036038101906101ba919061173f565b610c86565b6040516101cc9190611aa9565b60405180910390f35b6101ef60048036038101906101ea9190611acb565b610e11565b005b61020b60048036038101906102069190611b62565b611164565b6040516102189190611aa9565b60405180910390f35b61023b600480360381019061023691906117be565b611249565b60405161024d96959493929190611c06565b60405180910390f35b610270600480360381019061026b91906117be565b6113d7565b005b61028c60048036038101906102879190611b62565b6114c5565b6040516102999190611c90565b60405180910390f35b6102bc60048036038101906102b79190611cab565b611503565b6040516102c99190611982565b60405180910390f35b6102da611548565b6040516102e79190611982565b60405180910390f35b60006102fa611548565b90506000600560008381526020019081526020016000209050828160010190816103249190611eea565b5081816000018190555060018160030160006101000a81548160ff0219169083151502179055507f844b238e9f9ef8bba8827bb4f714edebda03b45cb58bdf0eb783ea2acd41f7d9838360405161037c929190611fbc565b60405180910390a1505050565b600060048360405161039b9190612028565b9081526020016040518091039020905060006006600084815260200190815260200160002090506000806000808560020180549050935060005b848110156109fc578660020181815481106103f3576103f261203f565b5b906000526020600020015493506000600660008681526020019081526020016000206040518060e001604052908160008201548152602001600182015481526020016002820160009054906101000a900460ff16600181111561045957610458611b8f565b5b600181111561046b5761046a611b8f565b5b81526020016002820160019054906101000a900460ff16600181111561049457610493611b8f565b5b60018111156104a6576104a5611b8f565b5b815260200160038201548152602001600482015481526020016005820160009054906101000a900460ff1660038111156104e3576104e2611b8f565b5b60038111156104f5576104f4611b8f565b5b8152505090506001600381111561050f5761050e611b8f565b5b8160c00151600381111561052657610525611b8f565b5b1461053057600080fd5b6001600381111561054457610543611b8f565b5b8760050160009054906101000a900460ff16600381111561056857610567611b8f565b5b1461057257600080fd5b8060600151600181111561058957610588611b8f565b5b8760020160009054906101000a900460ff1660018111156105ad576105ac611b8f565b5b1480156105c157508060a001518760030154145b156109e857600b6105d0611548565b6105da919061209d565b92506000600760008581526020019081526020016000209050838160000181905550600660008b81526020019081526020016000208160010160008201548160000155600182015481600101556002820160009054906101000a900460ff168160020160006101000a81548160ff0219169083600181111561065f5761065e611b8f565b5b02179055506002820160019054906101000a900460ff168160020160016101000a81548160ff0219169083600181111561069c5761069b611b8f565b5b021790555060038201548160030155600482015481600401556005820160009054906101000a900460ff168160050160006101000a81548160ff021916908360038111156106ed576106ec611b8f565b5b0217905550905050600660008781526020019081526020016000208160070160008201548160000155600182015481600101556002820160009054906101000a900460ff168160020160006101000a81548160ff0219169083600181111561075857610757611b8f565b5b02179055506002820160019054906101000a900460ff168160020160016101000a81548160ff0219169083600181111561079557610794611b8f565b5b021790555060038201548160030155600482015481600401556005820160009054906101000a900460ff168160050160006101000a81548160ff021916908360038111156107e6576107e5611b8f565b5b0217905550905050600088600101549050600083602001519050600060056000848152602001908152602001600020905060006005600084815260200190815260200160002090508b600401548260040160008e60020160019054906101000a900460ff16600181111561085d5761085c611b8f565b5b600181111561086f5761086e611b8f565b5b8152602001908152602001600020600082825461088c91906120df565b925050819055508560a00151816004016000886060015160018111156108b5576108b4611b8f565b5b60018111156108c7576108c6611b8f565b5b815260200190815260200160002060008282546108e491906120df565b925050819055508c60030188908060018154018082558091505060019003906000526020600020016000909190919091505560018d60040160008a815260200190815260200160002060006101000a81548160ff02191690831515021790555060038c60050160006101000a81548160ff0219169083600381111561096c5761096b611b8f565b5b021790555060038660c00190600381111561098a57610989611b8f565b5b9081600381111561099e5761099d611b8f565b5b815250507ff4f937150379fa7ad3da75327451d322773eeb20eca6b4de56e0ab7bb7f9d657886040516109d1919061215f565b60405180910390a1600198505050505050506109fc565b5080806109f49061218d565b9150506103d5565b506000151582151503610a3f577feb642765f85bf62d921a56085d63c645c63d372cbd47fe68c7926fb2a21401ed604051610a3690612221565b60405180910390a15b5050505050505050565b6060600482604051610a5b9190612028565b908152602001604051809103902060050160009054906101000a900460ff1615610abc576040518060400160405280600e81526020017f4d61726b657420657869737473210000000000000000000000000000000000008152509050610af5565b6040518060400160405280600f81526020017f4e6f2073756368206d61726b657421000000000000000000000000000000000081525090505b919050565b82610b04816114c5565b610b43576040517f08c379a0000000000000000000000000000000000000000000000000000000008152600401610b3a9061228d565b60405180910390fd5b600060056000868152602001908152602001600020905082816004016000866001811115610b7457610b73611b8f565b5b6001811115610b8657610b85611b8f565b5b81526020019081526020016000206000828254610ba391906120df565b925050819055507fa91f60f5c7a729941cc9ff46f2c8dede5e2124417e0475da33609d08f6b02e9d8484604051610bdb9291906122ad565b60405180910390a15050505050565b600082610bf6816114c5565b610c35576040517f08c379a0000000000000000000000000000000000000000000000000000000008152600401610c2c9061228d565b60405180910390fd5b6000610c4085611579565b6004016000856001811115610c5857610c57611b8f565b5b6001811115610c6a57610c69611b8f565b5b8152602001908152602001600020549050809250505092915050565b60606000600483604051610c9a9190612028565b9081526020016040518091039020905060008160010180549050905060008167ffffffffffffffff811115610cd257610cd1611614565b5b604051908082528060200260200182016040528015610d0557816020015b6060815260200190600190039081610cf05790505b50905060005b82811015610e05576000846001018281548110610d2b57610d2a61203f565b5b906000526020600020015490506000610d4382611579565b6001018054610d5190611d07565b80601f0160208091040260200160405190810160405280929190818152602001828054610d7d90611d07565b8015610dca5780601f10610d9f57610100808354040283529160200191610dca565b820191906000526020600020905b815481529060010190602001808311610dad57829003601f168201915b5050505050905080848481518110610de557610de461203f565b5b602002602001018190525050508080610dfd9061218d565b915050610d0b565b50809350505050919050565b83610e1b816114c5565b610e5a576040517f08c379a0000000000000000000000000000000000000000000000000000000008152600401610e519061228d565b60405180910390fd5b6000600487604051610e6c9190612028565b90815260200160405180910390209050600060056000888152602001908152602001600020905083816004016000886001811115610ead57610eac611b8f565b5b6001811115610ebf57610ebe611b8f565b5b8152602001908152602001600020541015610f0f576040517f08c379a0000000000000000000000000000000000000000000000000000000008152600401610f0690612322565b60405180910390fd5b6000600a610f1b611548565b610f25919061209d565b9050600083600201829080600181540180825580915050600190039060005260206000200160009091909190915055600060066000848152602001908152602001600020905060008160050160006101000a81548160ff02191690836003811115610f9357610f92611b8f565b5b0217905550828160000181905550898160010181905550888160020160006101000a81548160ff02191690836001811115610fd157610fd0611b8f565b5b0217905550878160020160016101000a81548160ff02191690836001811115610ffd57610ffc611b8f565b5b02179055508681600301819055506000600181111561101f5761101e611b8f565b5b89600181111561103257611031611b8f565b5b0361105457606487611044919061209d565b9150818160040181905550611099565b60018081111561106757611066611b8f565b5b89600181111561107a57611079611b8f565b5b036110985760648761108c9190612371565b91508181600401819055505b5b868460040160008b60018111156110b3576110b2611b8f565b5b60018111156110c5576110c4611b8f565b5b815260200190815260200160002060008282546110e291906123a2565b9250508190555060018160050160006101000a81548160ff0219169083600381111561111157611110611b8f565b5b02179055507f3dd9aee6e784ff4db487c64b66a3328706b4087f3d0d4328b294cf95c1386b2b8a8a8a8a868860405161114f969594939291906123d6565b60405180910390a15050505050505050505050565b606061116f82611579565b600201805480602002602001604051908101604052809291908181526020016000905b8282101561123e5783829060005260206000200180546111b190611d07565b80601f01602080910402602001604051908101604052809291908181526020018280546111dd90611d07565b801561122a5780601f106111ff5761010080835404028352916020019161122a565b820191906000526020600020905b81548152906001019060200180831161120d57829003601f168201915b505050505081526020019060010190611192565b505050509050919050565b6060600080606060008060006004896040516112659190612028565b90815260200160405180910390209050600115158160040160008a815260200190815260200160002060009054906101000a900460ff161515146112de576040517f08c379a00000000000000000000000000000000000000000000000000000000081526004016112d590612483565b60405180910390fd5b6000600760008a815260200190815260200160002090506000816001019050600082600701905060008260020160019054906101000a900460ff16905060008260020160019054906101000a900460ff169050600084600401549050600084600401549050838284836040518060400160405280600c81526020017f4f666665725f3120676f743a0000000000000000000000000000000000000000815250939291906040518060400160405280600c81526020017f4f666665725f3220676f743a000000000000000000000000000000000000000081525091909d509d509d509d509d509d5050505050505050509295509295509295565b806113e1816114c5565b611420576040517f08c379a00000000000000000000000000000000000000000000000000000000081526004016114179061228d565b60405180910390fd5b600060056000848152602001908152602001600020905060006004856040516114499190612028565b908152602001604051809103902090508060010184908060018154018082558091505060019003906000526020600020016000909190919091505581600201816000019080600181540180825580915050600190039060005260206000200160009091909190915090816114bd91906124ce565b505050505050565b60006005600083815260200190815260200160002060030160009054906101000a900460ff16156114f957600190506114fe565b600090505b919050565b60008060008084600181111561151c5761151b611b8f565b5b600181111561152e5761152d611b8f565b5b815260200190815260200160002054905080915050919050565b600080429050600043905060006127108284611564919061209d565b61156e91906125b6565b905080935050505090565b600081611585816114c5565b6115c4576040517f08c379a00000000000000000000000000000000000000000000000000000000081526004016115bb9061228d565b60405180910390fd5b60006005600085815260200190815260200160002090508092505050919050565b6000604051905090565b600080fd5b600080fd5b600080fd5b600080fd5b6000601f19601f8301169050919050565b7f4e487b7100000000000000000000000000000000000000000000000000000000600052604160045260246000fd5b61164c82611603565b810181811067ffffffffffffffff8211171561166b5761166a611614565b5b80604052505050565b600061167e6115e5565b905061168a8282611643565b919050565b600067ffffffffffffffff8211156116aa576116a9611614565b5b6116b382611603565b9050602081019050919050565b82818337600083830152505050565b60006116e26116dd8461168f565b611674565b9050828152602081018484840111156116fe576116fd6115fe565b5b6117098482856116c0565b509392505050565b600082601f830112611726576117256115f9565b5b81356117368482602086016116cf565b91505092915050565b600060208284031215611755576117546115ef565b5b600082013567ffffffffffffffff811115611773576117726115f4565b5b61177f84828501611711565b91505092915050565b6000819050919050565b61179b81611788565b81146117a657600080fd5b50565b6000813590506117b881611792565b92915050565b600080604083850312156117d5576117d46115ef565b5b600083013567ffffffffffffffff8111156117f3576117f26115f4565b5b6117ff85828601611711565b9250506020611810858286016117a9565b9150509250929050565b600081519050919050565b600082825260208201905092915050565b60005b83811015611854578082015181840152602081019050611839565b60008484015250505050565b600061186b8261181a565b6118758185611825565b9350611885818560208601611836565b61188e81611603565b840191505092915050565b600060208201905081810360008301526118b38184611860565b905092915050565b600281106118c857600080fd5b50565b6000813590506118da816118bb565b92915050565b6000806000606084860312156118f9576118f86115ef565b5b6000611907868287016117a9565b9350506020611918868287016118cb565b9250506040611929868287016117a9565b9150509250925092565b6000806040838503121561194a576119496115ef565b5b6000611958858286016117a9565b9250506020611969858286016118cb565b9150509250929050565b61197c81611788565b82525050565b60006020820190506119976000830184611973565b92915050565b600081519050919050565b600082825260208201905092915050565b6000819050602082019050919050565b600082825260208201905092915050565b60006119e58261181a565b6119ef81856119c9565b93506119ff818560208601611836565b611a0881611603565b840191505092915050565b6000611a1f83836119da565b905092915050565b6000602082019050919050565b6000611a3f8261199d565b611a4981856119a8565b935083602082028501611a5b856119b9565b8060005b85811015611a975784840389528151611a788582611a13565b9450611a8383611a27565b925060208a01995050600181019050611a5f565b50829750879550505050505092915050565b60006020820190508181036000830152611ac38184611a34565b905092915050565b600080600080600060a08688031215611ae757611ae66115ef565b5b600086013567ffffffffffffffff811115611b0557611b046115f4565b5b611b1188828901611711565b9550506020611b22888289016117a9565b9450506040611b33888289016118cb565b9350506060611b44888289016118cb565b9250506080611b55888289016117a9565b9150509295509295909350565b600060208284031215611b7857611b776115ef565b5b6000611b86848285016117a9565b91505092915050565b7f4e487b7100000000000000000000000000000000000000000000000000000000600052602160045260246000fd5b60028110611bcf57611bce611b8f565b5b50565b6000819050611be082611bbe565b919050565b6000611bf082611bd2565b9050919050565b611c0081611be5565b82525050565b600060c0820190508181036000830152611c208189611860565b9050611c2f6020830188611bf7565b611c3c6040830187611973565b8181036060830152611c4e8186611860565b9050611c5d6080830185611bf7565b611c6a60a0830184611973565b979650505050505050565b60008115159050919050565b611c8a81611c75565b82525050565b6000602082019050611ca56000830184611c81565b92915050565b600060208284031215611cc157611cc06115ef565b5b6000611ccf848285016118cb565b91505092915050565b7f4e487b7100000000000000000000000000000000000000000000000000000000600052602260045260246000fd5b60006002820490506001821680611d1f57607f821691505b602082108103611d3257611d31611cd8565b5b50919050565b60008190508160005260206000209050919050565b60006020601f8301049050919050565b60008160020a8302905092915050565b600060088302611d9d7fffffffffffffffffffffffffffffffffffffffffffffffffffffffffffffffff82611d5d565b611da78683611d5d565b95508019841693508086168417925050509392505050565b6000819050919050565b6000611de4611ddf611dda84611788565b611dbf565b611788565b9050919050565b6000819050919050565b611dfe83611dc9565b611e12611e0a82611deb565b848454611d6d565b825550505050565b600090565b611e27611e1a565b611e32818484611df5565b505050565b5b81811015611e5657611e4b600082611e1f565b600181019050611e38565b5050565b601f821115611e9b57611e6c81611d38565b611e7584611d4d565b81016020851015611e84578190505b611e98611e9085611d4d565b830182611e37565b50505b505050565b60008160020a8304905092915050565b6000611ec160001984600802611ea0565b1980831691505092915050565b6000611eda8383611eb0565b9150826002028217905092915050565b611ef38261181a565b67ffffffffffffffff811115611f0c57611f0b611614565b5b611f168254611d07565b611f21828285611e5a565b600060209050601f831160018114611f545760008415611f42578287015190505b611f4c8582611ece565b865550611fb4565b601f198416611f6286611d38565b60005b82811015611f8a57848901518255600182019150602085019450602081019050611f65565b86831015611fa75784890151611fa3601f891682611eb0565b8355505b6001600288020188555050505b505050505050565b60006040820190508181036000830152611fd68185611860565b9050611fe56020830184611973565b9392505050565b600081905092915050565b60006120028261181a565b61200c8185611fec565b935061201c818560208601611836565b80840191505092915050565b60006120348284611ff7565b915081905092915050565b7f4e487b7100000000000000000000000000000000000000000000000000000000600052603260045260246000fd5b7f4e487b7100000000000000000000000000000000000000000000000000000000600052601160045260246000fd5b60006120a882611788565b91506120b383611788565b92508282026120c181611788565b915082820484148315176120d8576120d761206e565b5b5092915050565b60006120ea82611788565b91506120f583611788565b925082820190508082111561210d5761210c61206e565b5b92915050565b7f54726164652073756363657366756c6c7920696e697469617465640000000000600082015250565b6000612149601b83611825565b915061215482612113565b602082019050919050565b600060408201905081810360008301526121788161213c565b90506121876020830184611973565b92915050565b600061219882611788565b91507fffffffffffffffffffffffffffffffffffffffffffffffffffffffffffffffff82036121ca576121c961206e565b5b600182019050919050565b7f4e6f206f666665727320746f20696e6974696174652074726164650000000000600082015250565b600061220b601b83611825565b9150612216826121d5565b602082019050919050565b6000602082019050818103600083015261223a816121fe565b9050919050565b7f4944206e6f74206d61746368696e6720616e7920637573746f6d657200000000600082015250565b6000612277601c83611825565b915061228282612241565b602082019050919050565b600060208201905081810360008301526122a68161226a565b9050919050565b60006040820190506122c26000830185611bf7565b6122cf6020830184611973565b9392505050565b7f496e73756666696369656e742062616c616e6365000000000000000000000000600082015250565b600061230c601483611825565b9150612317826122d6565b602082019050919050565b6000602082019050818103600083015261233b816122ff565b9050919050565b7f4e487b7100000000000000000000000000000000000000000000000000000000600052601260045260246000fd5b600061237c82611788565b915061238783611788565b92508261239757612396612342565b5b828204905092915050565b60006123ad82611788565b91506123b883611788565b92508282039050818111156123d0576123cf61206e565b5b92915050565b600060c0820190506123eb6000830189611973565b6123f86020830188611bf7565b6124056040830187611bf7565b6124126060830186611973565b61241f6080830185611973565b61242c60a0830184611973565b979650505050505050565b7f4e6f2073756368207472616465206f6e2074686174206d61726b657400000000600082015250565b600061246d601c83611825565b915061247882612437565b602082019050919050565b6000602082019050818103600083015261249c81612460565b9050919050565b6000815490506124b281611d07565b9050919050565b60008190508160005260206000209050919050565b8181036124dc5750506125b4565b6124e5826124a3565b67ffffffffffffffff8111156124fe576124fd611614565b5b6125088254611d07565b612513828285611e5a565b6000601f8311600181146125425760008415612530578287015490505b61253a8582611ece565b8655506125ad565b601f198416612550876124b9565b965061255b86611d38565b60005b828110156125835784890154825560018201915060018501945060208101905061255e565b868310156125a0578489015461259c601f891682611eb0565b8355505b6001600288020188555050505b5050505050505b565b60006125c182611788565b91506125cc83611788565b9250826125dc576125db612342565b5b82820690509291505056fea2646970667358221220281612b1ffadba0e45dd597586ee9cdc143b174df660093a56e9ba1959a26b5864736f6c63430008150033",
  "immutableReferences": {},
  "source": "// SPDX-License-Identifier: MIT\r\npragma solidity ^0.8.0;\r\n\r\ncontract BasicTest {\r\n    enum DooblonCoin {\r\n        Silver,\r\n        Copper\r\n    }\r\n\r\n    enum OfferStatus {\r\n        Pending,\r\n        Placed,\r\n        Rejected,\r\n        Accepted\r\n    }\r\n\r\n    struct Customer {\r\n        uint id;\r\n        string customerName;\r\n        string[] markets;\r\n        bool created;\r\n        mapping(DooblonCoin => uint) wallet;\r\n    }\r\n\r\n    struct Offer {\r\n        uint id;\r\n        uint customerID;\r\n        DooblonCoin giveCoin;\r\n        DooblonCoin takeCoin;\r\n        uint quantity; /// Quantity of given coin\r\n        uint quantityExpected;\r\n        OfferStatus status;\r\n    }\r\n\r\n    struct Trade {\r\n        uint id;\r\n        Offer offer1;\r\n        Offer offer2;\r\n    }\r\n\r\n    struct StockMarket {\r\n        string name;\r\n        uint[] customers;\r\n        uint[] offersPlaced;\r\n        uint[] tradesInitiated;\r\n        mapping(uint => bool) listedTrades;\r\n        bool created;\r\n    }\r\n\r\n    uint constant silverPrice = 1;\r\n    uint constant copperPrice = 100;\r\n\r\n    mapping(DooblonCoin => uint) priceList;\r\n\r\n    string[3] marketNames = [\"AbobaMarket\", \"PepeStocks\", \"Deez Nutz Inc.\"];\r\n\r\n    mapping(string => StockMarket) marketList;\r\n    mapping(uint => Customer) customerList;\r\n    mapping(uint => Offer) offers;\r\n    mapping(uint => Trade) trades;\r\n\r\n    event StockMarketCreated(string name);\r\n    event CustomerJoinedStockMarket(string name, uint id);\r\n\r\n    event TradeInitiated(string, uint tradeID);\r\n    event NoMatchingOffer(string);\r\n\r\n    event OfferPlaced(\r\n        uint customerID,\r\n        DooblonCoin givenCoin,\r\n        DooblonCoin takeCoin,\r\n        uint quantityGiven,\r\n        uint quantityExpected,\r\n        uint offerID\r\n    );\r\n\r\n    event CustomerCreated(string name, uint id);\r\n    event CustomerFunded(DooblonCoin coin, uint quantity);\r\n\r\n    modifier customerIDCheck(uint customerID) {\r\n        require(\r\n            checkCustomerExists(customerID),\r\n            \"ID not matching any customer\"\r\n        );\r\n        _;\r\n    }\r\n\r\n    constructor() {\r\n        /// Creates 3 markets - names are listed in 'marketNames'\r\n        for (uint i = 0; i < marketNames.length; i++) {\r\n            createStockMarket(marketNames[i]);\r\n        }\r\n        priceList[DooblonCoin.Silver] = silverPrice;\r\n        priceList[DooblonCoin.Copper] = copperPrice;\r\n    }\r\n\r\n    function randomNum() public view returns (uint) {\r\n        uint num = block.timestamp;\r\n        uint blockNum = (block.number);\r\n        uint result = (num * blockNum) % 10000;\r\n        return result;\r\n    }\r\n\r\n    function createCustomer(string memory name) external {\r\n        uint id = randomNum();\r\n        Customer storage customer = customerList[id];\r\n        customer.customerName = name;\r\n        customer.id = id;\r\n        customer.created = true;\r\n        emit CustomerCreated(name, id);\r\n    }\r\n\r\n    function createStockMarket(string memory name) private {\r\n        /// Creates StockMarket object\r\n        StockMarket storage market = marketList[name];\r\n        market.name = name;\r\n        market.created = true;\r\n        emit StockMarketCreated(name);\r\n    }\r\n\r\n    function checkCustomerExists(uint id) public view returns (bool) {\r\n        if (customerList[id].created) {\r\n            return true;\r\n        } else {\r\n            return false;\r\n        }\r\n    }\r\n\r\n    function checkStockMarketExists(\r\n        string memory name\r\n    ) public view returns (string memory) {\r\n        /// Check if stock market with given name exists\r\n        if (marketList[name].created) {\r\n            return \"Market exists!\";\r\n        } else {\r\n            return \"No such market!\";\r\n        }\r\n    }\r\n\r\n    function fundCustomerWallet(\r\n        uint customerID,\r\n        DooblonCoin coin,\r\n        uint quantity\r\n    ) external customerIDCheck(customerID) {\r\n        Customer storage customer = customerList[customerID];\r\n        customer.wallet[coin] += quantity;\r\n        emit CustomerFunded(coin, quantity);\r\n    }\r\n\r\n    function customerJoinStockMarket(\r\n        string memory marketName,\r\n        uint customerID\r\n    ) public customerIDCheck(customerID) {\r\n        Customer storage customer = customerList[customerID];\r\n        StockMarket storage stockMarket = marketList[marketName];\r\n        stockMarket.customers.push(customerID);\r\n        customer.markets.push(stockMarket.name);\r\n    }\r\n\r\n    function placeOffer(\r\n        string memory stockMarketName,\r\n        uint customerID,\r\n        DooblonCoin giveCoin,\r\n        DooblonCoin takeCoin,\r\n        uint quantity\r\n    ) public customerIDCheck(customerID) {\r\n        StockMarket storage stockMarket = marketList[stockMarketName];\r\n        Customer storage customer = customerList[customerID];\r\n        require(customer.wallet[giveCoin] >= quantity, \"Insufficient balance\");\r\n        uint offerID = randomNum() * 10;\r\n        uint quantityExpected;\r\n        stockMarket.offersPlaced.push(offerID);\r\n\r\n        /// Offer object setting\r\n        Offer storage offer = offers[offerID];\r\n        offer.status = OfferStatus.Pending;\r\n        offer.id = offerID;\r\n        offer.customerID = customerID;\r\n        offer.giveCoin = giveCoin;\r\n        offer.takeCoin = takeCoin;\r\n        offer.quantity = quantity;\r\n\r\n        /// Customer wallet setting\r\n        if (giveCoin == DooblonCoin.Silver) {\r\n            quantityExpected = quantity * copperPrice;\r\n            offer.quantityExpected = quantityExpected;\r\n        } else if (giveCoin == DooblonCoin.Copper) {\r\n            quantityExpected = quantity / copperPrice;\r\n            offer.quantityExpected = quantityExpected;\r\n        }\r\n        customer.wallet[giveCoin] -= quantity;\r\n        offer.status = OfferStatus.Placed;\r\n        emit OfferPlaced(\r\n            customerID,\r\n            giveCoin,\r\n            takeCoin,\r\n            quantity,\r\n            quantityExpected,\r\n            offerID\r\n        );\r\n    }\r\n\r\n    function initiateTrade(string memory stockMarketName, uint offerID) public {\r\n        StockMarket storage stockMarket = marketList[stockMarketName];\r\n        Offer storage offer = offers[offerID];\r\n        uint len;\r\n        uint tempID;\r\n        bool initiated;\r\n\r\n        uint tradeID;\r\n\r\n        len = stockMarket.offersPlaced.length;\r\n        for (uint i = 0; i < len; i++) {\r\n            tempID = stockMarket.offersPlaced[i];\r\n            Offer memory tempOffer = offers[tempID];\r\n            require(tempOffer.status == OfferStatus.Placed);\r\n            require(offer.status == OfferStatus.Placed);\r\n            if (\r\n                offer.giveCoin == tempOffer.takeCoin &&\r\n                offer.quantity == tempOffer.quantityExpected\r\n            ) {\r\n                tradeID = randomNum() * 11;\r\n                Trade storage trade = trades[tradeID];\r\n                trade.id = tradeID;\r\n                trade.offer1 = offers[offerID];\r\n                trade.offer2 = offers[tempID];\r\n\r\n                uint customerID_1 = offer.customerID;\r\n                uint customerID_2 = tempOffer.customerID;\r\n\r\n                Customer storage customer_1 = customerList[customerID_1];\r\n                Customer storage customer_2 = customerList[customerID_2];\r\n\r\n                customer_1.wallet[offer.takeCoin] += offer.quantityExpected;\r\n                customer_2.wallet[tempOffer.takeCoin] += tempOffer\r\n                    .quantityExpected;\r\n\r\n                stockMarket.tradesInitiated.push(tradeID);\r\n                stockMarket.listedTrades[tradeID] = true;\r\n\r\n                offer.status = OfferStatus.Accepted;\r\n                tempOffer.status = OfferStatus.Accepted;\r\n\r\n                emit TradeInitiated(\"Trade succesfully initiated\", tradeID);\r\n                initiated = true;\r\n                break;\r\n            }\r\n        }\r\n        if (initiated == false) {\r\n            emit NoMatchingOffer(\"No offers to initiate trade\");\r\n        }\r\n    }\r\n\r\n    function getTradeInfo(\r\n        string memory marketName,\r\n        uint tradeID\r\n    )\r\n        public\r\n        view\r\n        returns (\r\n            string memory,\r\n            DooblonCoin,\r\n            uint,\r\n            string memory,\r\n            DooblonCoin,\r\n            uint\r\n        )\r\n    {\r\n        StockMarket storage market = marketList[marketName];\r\n        require(\r\n            market.listedTrades[tradeID] == true,\r\n            \"No such trade on that market\"\r\n        );\r\n        Trade storage trade = trades[tradeID];\r\n\r\n        Offer storage offer1 = trade.offer1;\r\n        Offer storage offer2 = trade.offer2;\r\n\r\n        DooblonCoin takeCoin1 = offer1.takeCoin;\r\n        DooblonCoin takeCoin2 = offer2.takeCoin;\r\n\r\n        uint quantityExpected1 = offer1.quantityExpected;\r\n        uint quantityExpected2 = offer2.quantityExpected;\r\n\r\n        return (\r\n            \"Offer_1 got:\",\r\n            takeCoin1,\r\n            quantityExpected1,\r\n            \"Offer_2 got:\",\r\n            takeCoin2,\r\n            quantityExpected2\r\n        );\r\n    }\r\n\r\n    function getCustomerInfo(\r\n        uint customerID\r\n    ) internal view customerIDCheck(customerID) returns (Customer storage) {\r\n        Customer storage customer = customerList[customerID];\r\n        return customer;\r\n    }\r\n\r\n    function showWallet(\r\n        uint customerID,\r\n        DooblonCoin coin\r\n    ) public view customerIDCheck(customerID) returns (uint) {\r\n        uint bal = getCustomerInfo(customerID).wallet[coin];\r\n        return bal;\r\n    }\r\n\r\n    function showCoinPrice(DooblonCoin coin) public view returns (uint) {\r\n        uint price = priceList[coin];\r\n        return price;\r\n    }\r\n\r\n    function showCustomerMarkets(\r\n        uint customerID\r\n    ) public view returns (string[] memory) {\r\n        return getCustomerInfo(customerID).markets;\r\n    }\r\n\r\n    function showCustomersOnMarket(\r\n        string memory marketName\r\n    ) public view returns (string[] memory) {\r\n        /// Show list of customers on given StockMarket\r\n        StockMarket storage market = marketList[marketName];\r\n\r\n        uint len = market.customers.length;\r\n        string[] memory names = new string[](len);\r\n        for (uint i = 0; i < len; i++) {\r\n            uint customerID = market.customers[i];\r\n            string memory name = getCustomerInfo(customerID).customerName;\r\n            names[i] = name;\r\n        }\r\n        return names;\r\n    }\r\n}\r\n",
  "sourcePath": "C:\\Users\\God\\SolidityStudy\\StockMarketBasic\\contracts\\BasicTest.sol",
  "compiler": {
    "name": "solc",
    "version": "0.8.21+commit.d9974bed.Emscripten.clang"
  },
  "schemaVersion": "3.4.15",
  "updatedAt": "2023-08-24T12:47:39.549Z",
  "networkType": "ethereum",
  "devdoc": {
    "kind": "dev",
    "methods": {},
    "version": 1
  },
  "userdoc": {
    "kind": "user",
    "methods": {},
    "version": 1
  }
}